:100000000C943E000C945B000C945B000C945B0021
:100010000C945B000C945B000C945B000C945B00F4
:100020000C945B000C945B000C945B000C945B00E4
:100030000C945B000C9469010C945B000C945B00C5
:100040000C945B000C945B000C945B000C94FC0122
:100050000C945B000C945B000C945B000C9475009A
:100060000C945B000C945B000C945B000C945B00A4
:100070000C945B000C945B000C945B0011241FBE7D
:10008000CFEFCDBFDFE7DEBF18E7A0E0B8E7ECE9D0
:10009000F5E002C005900D92A230B107D9F728E72C
:1000A000A2E0B8E701C01D92AA31B207E1F70E94B1
:1000B00092020C94CC020C940000E0E6F4E085E29D
:1000C0008283A2E4B4E088E08C9384E0808B828B0E
:1000D000858BA3E58C93E0E8F6E085E0808381E002
:1000E0008283868380E090E008951895809102785D
:1000F00090910378892B09F0089510922C0A1092A0
:100100002D0A10922A0A10922B0A1092280A109295
:10011000290AECCF1092860610920078109201788E
:1001200008958091027890910378029731F480913C
:100130000278909103780397A1F70895089580912C
:10014000050A82608093050A809100789091017879
:100150008330910509F469C008F58130910509F4EF
:1001600048C0029719F510922C0A10922D0A20917E
:1001700004783091057880EA91E0821B930B80939C
:100180002A0A90932B0A80910478909105788093A5
:10019000280A9093290A8091820623C08430910511
:1001A00009F454C0059709F466C0089520910478B5
:1001B0003091057880EA91E0821B930B80932C0AA2
:1001C00090932D0A809104789091057880932A0A63
:1001D00090932B0A1092280A1092290A8091820685
:1001E0008063809382068091040A82608093040A6F
:1001F0000895209104783091057880EA91E0821B7F
:10020000930B80932C0A90932D0A10922A0A109235
:100210002B0A80910478909105788093280A909316
:10022000290A809182068062DCCF809104789091C7
:10023000057880932C0A90932D0A209104783091B0
:10024000057880EA91E0821B930BC0CF80910478FF
:100250009091057880932C0A90932D0A10922A0A87
:1002600010922B0A209104783091057880EA91E071
:10027000821B930BD2CF8091047890910578809364
:100280002C0A90932D0A209104783091057880EA09
:1002900091E0821B930B80932A0A90932B0A109271
:1002A000280A1092290A77CF1092E70580E090E0A3
:1002B0000895E0E0F4E0178A80E7808FF2E081E4BF
:1002C000808B81E080ABFBE084E0818383E08483EA
:1002D00008951F920F920FB60F9211242F933F9300
:1002E0004F935F936F937F938F939F93AF93BF933E
:1002F000EF93FF938091060B81FF1DC0109202784F
:10030000109203788091060B80628093060B84E242
:100310000E946002FF91EF91BF91AF919F918F91E9
:100320007F916F915F914F913F912F910F900FBEF1
:100330000F901F9018958091027890910378892BE7
:1003400039F481E090E08093027890930378DFCFD6
:1003500082E090E0809302789093037820910C0BD8
:1003600030910D0B285E334040EA51E0249FC001DC
:10037000259F900D349F900D112468EE73E00E942C
:10038000B8026093047870930578C1CF8FE38093AF
:100390000104E0E0FAE081E0808385E0818380EA87
:1003A00091E086A397A310A611A612A613A614A6E1
:1003B00015A60895F89483E08093E205E0E6F4E062
:1003C000818180618183E0E0F8E086EB92E08087C4
:1003D0009187868180648683789408954091087817
:1003E00050910978209106783091077881E0421782
:1003F000530709F080E008951F920F920FB60F92F5
:1004000011242F933F934F935F936F937F938F9319
:100410009F93AF93BF93EF93FF930E94EE018115DB
:1004200099F010920508FF91EF91BF91AF919F91C4
:100430008F917F916F915F914F913F912F910F908D
:100440000FBE0F901F901895E0910878F0910978F1
:10045000EA5FF74884818093020880910878909140
:1004600009780F9729F41092087810920978DBCF59
:1004700080910878909109780196809308789093FC
:100480000978D1CF8091087890910978892B51F41F
:10049000209106783091077881E02F30310509F0FE
:1004A00080E008954091067850910778209108786F
:1004B000309109782150310981E024173507EFCFB9
:1004C000CF93C82F109205080E944202811529F08F
:1004D00080E280930508CF910895E0910678F0912D
:1004E0000778EA5FF748C48380910678909107788F
:1004F0000F9729F41092067810920778E9CF80912F
:100500000678909107780196809306789093077803
:10051000DFCFE0E8FCE087E0808389E1828B8FE336
:10052000878B08950E9454010E9459010E94C601C0
:100530000E9489020E945D000E94DA018FB78760E5
:100540008FBF88ED84BF1092610044E650E028EC34
:1005500030E08CE291E040932C0A50932D0A2093D6
:100560002A0A30932B0A8093280A9093290AF3CF02
:10057000AA1BBB1B51E107C0AA1FBB1FA617B707C9
:1005800010F0A61BB70B881F991F5A95A9F78095E5
:0C0590009095BC01CD010895F894FFCFB8
:02059C00060057
:00000001FF
