:100000000C943E000C9450000C9450000C94500042
:100010000C9450000C9450000C9450000C94500020
:100020000C9450000C9450000C9450000C94500010
:100030000C9450000C9456020C9450000C945000F8
:100040000C9450000C9450000C9450000C94EB0253
:100050000C9450000C9450000C9450000C946600CA
:100060000C9450000C9450000C9450000C945000D0
:100070000C9450000C9450000C94500011241FBE9E
:10008000CFEFCDBFDFE7DEBF28E7A0E0B8E701C0D4
:100090001D92A232B207E1F70E94C10F0C945713D0
:1000A0000C940000E0E6F4E085E28283A2E4B4E090
:1000B00088E08C9384E0808B828B858BA3E58C9386
:1000C000E0E8F6E087E08083128208951F920F92A5
:1000D0000FB60F9211242F933F934F935F936F931B
:1000E0007F938F939F93AF93BF93EF93FF938CE195
:1000F00097EA9F938F930E942B0F809187068160D0
:1001000080938706809180068E7F80938006809101
:100110000278909103780F900F900197C9F481E0D5
:1001200080930D7880918006816080938006FF9196
:10013000EF91BF91AF919F918F917F916F915F915F
:100140004F913F912F910F900FBE0F901F901895D8
:100150000E94AB00E7CF8091050A82608093050A78
:100160001092940C809104789091057883309105D9
:1001700009F46BC008F58130910509F44AC0029773
:1001800041F580E38093940C10922A0A10922B0A76
:1001900080910678909107788093280A9093290A95
:1001A00080918206877C809382068091820680936C
:1001B000820683E090E028C08430910509F461C094
:1001C000059709F47AC08091040A82608093040A3A
:1001D000089510922C0A10922D0A80910678909121
:1001E000077880932A0A90932B0A83E08093940CDB
:1001F00080918206877C809382068091820680634C
:100200008093820681E090E0809304789093057853
:10021000DACF10922C0A10922D0A8CE08093940C65
:1002200080910678909107788093280A9093290A04
:1002300080918206877C809382068091820680620C
:100240008093820682E090E0DFCF809106789091E3
:10025000077880932C0A90932D0A10922A0A109204
:100260002B0A83E08093940C80918206877C809394
:1002700082068091820680638093820684E090E00B
:10028000C3CF809106789091077880932C0A909341
:100290002D0A8CE08093940C1092280A1092290A5F
:1002A00080918206877C809382068091820680629C
:1002B0008093820685E090E0A7CF80E38093940C42
:1002C000809106789091077880932A0A90932B0A60
:1002D0001092280A1092290A80918206877C8093C6
:1002E0008206809182068093820610920478109292
:1002F000057869CF1092E70582E080934104089564
:1003000083E090E0809302789093037882E080937A
:10031000460489E991E08093007890930178809178
:1003200008789091097801968093087890930978DD
:100330000895CF93DF931092027810920378109271
:100340000678109207781092280A1092290A1092C3
:100350002A0A10922B0A10922C0A10922D0A10923F
:100360000D788AE090E080930B7890930C7810924F
:100370000A7882E08093460410928606CAE2D7EAA1
:100380008091067890910778459748F08DE092E04B
:100390008093007890930178DF91CF9108958091B8
:1003A0000278909103789F938F93DF93CF930E946D
:1003B0002B0F0F900F900F900F90E2CFCF93DF9302
:1003C00082E090E08093027890930378CAE2D7EAC3
:1003D0008091067890910778449798F080910A78F8
:1003E000811118C080910278909103789F938F9328
:1003F000DF93CF930E942B0F0F900F900F900F90D1
:10040000E7CF89E991E08093007890930178DF91BC
:10041000CF91089580E891E0F6CFCF93DF9381E00C
:1004200090E080930278909303781092050B1092DD
:10043000860682E080934504109204781092057835
:1004400084E1809306789093077810920D78C0E14C
:10045000D7E280910D78811571F08EED91E0809357
:1004600000789093017810920D7883E08093050BCB
:10047000DF91CF9108950E94AB00CE010E947803D6
:100480002A97E7CFE0E0F4E088E0878B87E0808F71
:10049000F2E080E4808B81E080ABFBE0808384E04D
:1004A000818381E4848383E0858308950F920FB66E
:1004B0000F921F9211242F933F934F935F936F934B
:1004C0007F938F939F93AF93BF93EF93FF9380910D
:1004D000060B81FF07C0109206781092077882E021
:1004E0008093060B8091060B80FF0FC020910C0BB0
:1004F00030910D0BC901A0E0B0E020324EE434078A
:10050000A8F41092067810920778FF91EF91BF91AE
:10051000AF919F918F917F916F915F914F913F919B
:100520002F911F900F900FBE0F90189581342CE9DA
:100530009207A105B10538F080EA91E08093067832
:1005400090930778E2CF80529E449C01A0EAB1E0EC
:100550000E94001020E23EE440E050E00E942310A0
:100560002093067830930778D0CF8FE380930104EF
:10057000E0E0FAE081E0808385E0818380EA91E039
:1005800086A397A310A611A612A613A614A615A6B5
:100590000895F89483E08093E205E0E6F4E0818139
:1005A00080618183E0E0F8E086EB92E080879187CC
:1005B0008681806486837894089540911078509164
:1005C000117820910E7830910F7881E0421753070F
:1005D00009F080E008951F920F920FB60F92112438
:1005E0002F933F934F935F936F937F938F939F933B
:1005F000AF93BF93EF93FF930E94DD02811599F0B3
:1006000010920508FF91EF91BF91AF919F918F914B
:100610007F916F915F914F913F912F910F900FBEFE
:100620000F901F901895E0911078F0911178E25F8B
:10063000F748848180930208809110789091117816
:100640000F9729F41092107810921178DBCF8091D7
:10065000107890911178019680931078909311788A
:10066000D1CF8091107890911178892B51F42091FD
:100670000E7830910F7881E02F30310509F080E05D
:10068000089540910E7850910F7820911078309114
:1006900011782150310981E024173507EFCFCF932E
:1006A000C82F109205080E943103811529F080E2BD
:1006B00080930508CF910895E0910E78F0910F781E
:1006C000E25FF748C48380910E7890910F780F977E
:1006D00029F410920E7810920F78E9CF80910E785D
:1006E00090910F78019680930E7890930F78DFCFDA
:1006F00020E030E0281739070CF0089500002F5F44
:100700003F4FF8CFE0E8FCE087E0808389E1828B0F
:100710008FE3878B08954217530720F4640F751FEA
:10072000FB018083089508952F923F924F925F922C
:100730006F927F928F929F92AF92BF92CF92DF92F1
:10074000EF92FF920F931F93CF93DF9300D000D0CF
:1007500000D0CDB7DEB73C0169837A834D835E83D9
:100760002B833C83180125018A2D837090E08A0138
:10077000892B01F58701AD80BE800DC02B813C81A6
:10078000A50169817A8180E2F30109950F5F1F4F0E
:10079000FFEFAF1ABF0A0C151D0580F386010E1975
:1007A0001F09CE14DF0410F400E010E02D813E811B
:1007B000020F131F5101AE0CBF1C48012A143B0449
:1007C00039F5C701800F911F41FE0CC08C012D81AE
:1007D0003E81021B130B8D819E81800F911F0C1592
:1007E0001D0520F12696CDBFDEBFDF91CF911F9171
:1007F0000F91FF90EF90DF90CF90BF90AF909F90C0
:100800008F907F906F905F904F903F902F900895C2
:100810002B813C81A40169817A81F50182915F017C
:10082000F3010995FFEF8F1A9F0AC8CF2B813C81F6
:10083000AC0169817A8180E2F30109950F5F1F4F56
:10084000CACF8F929F92AF92BF92CF92DF92EF92D8
:10085000FF920F931F93CF93DF9300D000D0CDB7BB
:10086000DEB789839A832B833C83C701FC2CCB881A
:10087000DC88ED89FE89E1FD21C0C114D10461F05D
:10088000E0FF0AC0F11005C0AE2FAC70B0E0AB2B9A
:1008900019F021E0C21AD108A0E3EA2E05C0D80160
:1008A000A80FB91FEC9201968815990518F48032AB
:1008B0009105A9F730E3E32EE0FD20C0E4FF42C03C
:1008C000F2FD25C0009719F18815990519F08C15CE
:1008D0009D05E9F4DC011197C1F0029720E1A21611
:1008E000B104D1F082E0A816B10409F468C0CD01CA
:1008F00022C0D801A80FB91FEC9201968C159D0556
:10090000E8F680329105A9F7D9CF80E090E0A0E128
:10091000AA16B10409F046C0E5FD21C08032910558
:1009200009F1D801A80FB91F28E7E22EEC92019631
:1009300080329105B9F0D801A80FB91F30E3E32E3A
:10094000EC9201968032910569F0F114D1F1D80151
:10095000A80FB91F2DE2F22EFC92019605C080323D
:100960009105D1F480E290E05F017C012B813C8114
:1009700089819A810E9494032496CDBFDEBFDF91C6
:10098000CF911F910F91FF90EF90DF90CF90BF908C
:10099000AF909F908F900895D801A80FB91F38E5A8
:1009A000E32EC4CF22E0A216B10411F680329105E5
:1009B000C9F2D801A80FB91F22E6E22EB7CFCD01A8
:1009C000F8CFE2FF06C0D801A80FB91F3BE2F32E13
:1009D000C3CFE3FFC9CFD801A80FB91F20E2F22E81
:1009E000BBCF2F923F924F925F926F927F928F92E6
:1009F0009F92AF92BF92CF92DF92EF92FF920F93AE
:100A00001F93CF93DF93CDB7DEB7AA97CDBFDEBFDD
:100A100089A39AA36BA37CA34DA35EA32FA338A79E
:100A200027013801C9A6CA2CA82CDB2CB92C229688
:100A30003FAC229723962FAC239725968EAC9FAC84
:100A40002597411451046104710411F4E89484F869
:100A500092FE07C0E12CF12C411451046104710491
:100A600031F181E485FE81E68E010F5F1F4FE12C9D
:100A7000F12C8A508AA7B201C3019501A6010E94F8
:100A800023106A300CF043C0605DEFEFEE1AFE0AEF
:100A9000F80160834A145B046C047D0440F00F5F2E
:100AA0001F4F29013A01F0E2EF16F10421F79F925E
:100AB0008F922F923F9221968EAC9FAC2197C9A422
:100AC0008E010F5F1F4F2FA138A54DA15EA16BA115
:100AD0007CA189A19AA10E9421040F900F900F90F0
:100AE0000F90AA96CDBFDEBFDF91CF911F910F91DE
:100AF000FF90EF90DF90CF90BF90AF909F908F903E
:100B00007F906F905F904F903F902F9008958AA5AF
:100B1000680FBBCF2F923F924F925F926F927F925E
:100B20008F929F92AF92BF92CF92DF92EF92FF92FD
:100B30000F931F93CF93DF93CDB7DEB7A297CDBFAF
:100B4000DEBF8F87988B698B7A8B4D8B5E8B2B8B5F
:100B50003C8BEB86FC860D871E87AF8AB88E898614
:100B60009A869701A801B701C8010E9486118111D8
:100B700014C02FEF3FEF4FE75FE7B701C8010E94B6
:100B8000E512181654F02FEF3FEF4FE75FEFB70174
:100B9000C8010E94861187FF2AC089849A84AF8881
:100BA000B88CEB84FC840D851E852B893C894D898E
:100BB0005E8969897A898F8598890E941908AC01B4
:100BC000CA01A296CDBFDEBFDF91CF911F910F91D9
:100BD000FF90EF90DF90CF90BF90AF909F908F905D
:100BE0007F906F905F904F903F902F90089540E0DE
:100BF00050E09A016B857C858D859E850E948611CB
:100C00004B845C846D847E8487FF04C077FA709483
:100C100077F870943A8534701D8E3E8F89859A8559
:100C200092FD03C096E0C92ED12C9201A30160E091
:100C300070E0CB0104E30E94D51029833A831B8224
:100C40001C821D821E821F82188669817A817770BC
:100C50006F5F7340872F880F880B982F0E94351283
:100C60002BE930E24AE95EE30E94EA1224E431E52E
:100C700044E35EE30E941A114B015C0120E030E086
:100C800040EC5FE3B201C3010E9419112BE33DE385
:100C900044E95EE30E94EA129B01AC01B401C50184
:100CA0000E941A110E94FD114B011B01990C880B27
:100CB000982F0E94351269837A838B839C8328E75F
:100CC0003AE944E550E40E94EA1220E030E040E0D6
:100CD0005FE30E941A110E94FD11698F7A8F8B8F3A
:100CE0009C8F2EE83DE543E150E469817A818B8158
:100CF0009C810E94EA1269837A838B839C83E98DAD
:100D0000FA8DBF01FF0F880B982F0E94351228E142
:100D100032E741E35FE30E94EA129B01AC01698183
:100D20007A818B819C810E9419117B018C019B012E
:100D3000AC010E94EA1269837A838B839C839701BA
:100D4000A801B701C8010E941A116F8F78A389A367
:100D50009AA320E030E040E651E469817A818B81FA
:100D60009C810E948B1120E030E040E251E40E941F
:100D70001A119B01AC0169817A818B819C810E944F
:100D80008B1120E030E040EC50E40E941A119B01EE
:100D9000AC0169817A818B819C810E948B1169836E
:100DA0007A838B839C839701A80160E070E080E0E8
:100DB00090E40E9419119B01AC0169817A818B81B9
:100DC0009C810E941A119B01AC016F8D78A189A1B1
:100DD0009AA10E948B1120E030E040E85FE30E947E
:100DE0001A1169837A838B839C83898D9A8D8150B4
:100DF0009C4FE92FEE0FEE0B9C014E2F5E2F6E2FB6
:100E00007E2F8E2F9E2F04E30E94BA1069817A8173
:100E10008B819C810E94EA127B018C019201A301CB
:100E20000E94E51218166CF4F1E02F1A310820E048
:100E300030E040E251E4B701C8010E948B117B0110
:100E40008C01C1018D599F4F873C910508F0DDC091
:100E500024E0298F1A8EE985FA85F3FF26C027E161
:100E600037EB41ED58E3B201C3010E94E51287FD63
:100E7000D3C020E034E244E759E4B201C3010E9448
:100E8000861187FFC9C02C143D040CF0C2C0C218E3
:100E9000D308F1E0CF1AD10829853A853460298733
:100EA0003A87198E1A8E212C312CE98DFA8D2F89D3
:100EB000388D5901AE1ABF0AE217F30710F0A12CC2
:100EC000B12C8985827089831A82E985FA85E1FFD0
:100ED00006C0298D3A8D232B11F0A12CB12C2114A1
:100EE000310441F09701A801B201C3010E948B11A6
:100EF0002B013C0189849A84E89493F840E050E007
:100F00009A016B857C858D859E850E94861187FF61
:100F100004C077FA709477F87094720183012B897A
:100F20003C894D895E8969897A898F8598890E9473
:100F30001908AC01898D9A8D892B09F441CE3A01AB
:100F40009FEF691A790AE985FA8585E4E5FF85E668
:100F50002B893C8969897A89EF85F889099537FA5F
:100F6000CC24C0F8710137FE03C0F194E194F1087C
:100F70000F2D000F000B102F1F9285E08F93298DEE
:100F80003A8D2150310929873A873F932F931F9239
:100F90001F928AE0882E912CA12CB12C2B893C89A0
:100FA000A30169897A898F8598890E94F104AC012F
:100FB0000F900F900F900F900F900F9089819A8152
:100FC000892B09F4FDCDFA012D893E89E21BF30B33
:100FD000E983FA834D895E8989819A81480F591F77
:100FE000EF89F88D8E179F0708F0EACD2B893C8991
:100FF00069897A8980E2EF85F889099529813A81A2
:101000002F5F3F4F29833A83E5CF85E0898F1A8E82
:1010100022CFC12CD12C40CFC114D10409F445CF2B
:101020008D8D9E8D892B09F440CF91E0C91AD1088E
:101030003CCF2F923F924F925F926F927F928F920E
:101040009F92AF92BF92CF92DF92EF92FF920F9357
:101050001F93CF93DF93CDB7DEB7E797CDBFDEBF4A
:101060008FA398A769A77AA74BA75CA72DA73EA730
:101070003701502E412E7601650114019301402F56
:10108000512FB301802F912F0E948611811589F075
:10109000540143E0E42EF12C0EE317EA2DA53EA502
:1010A0004BA55CA569A57AA58FA198A50E9494037C
:1010B00050C02FEF3FEF4FE75FEFB301802F912F2D
:1010C0000E94861187FF07C0540134E0E32EF12C03
:1010D00002E417EAE3CF2FEF3FEF4FE75FE7B301FB
:1010E000802F912F0E94E51218166CF484E090E096
:1010F00005E317EA82FC04C083E090E00AE317EA04
:1011000051017C01CBCF28E23BE64EE65EE4B30121
:10111000802F912F0E94E51218165CF028E23BE622
:101120004EE65EECB301802F912F0E94861187FF5F
:1011300026C04101560167017301052D142D2DA50F
:101140003EA54BA55CA569A57AA58FA198A50E948F
:101150008A05E796CDBFDEBFDF91CF911F910F913A
:10116000FF90EF90DF90CF90BF90AF909F908F90C7
:101170007F906F905F904F903F902F90089540E048
:1011800050E09A01B301802F912F0E94861187FFB2
:10119000A3C09301402F512F80E090E0BC010E943A
:1011A00019113B01582E492E21E02BAB32FE96C07F
:1011B000FE01319600E010E080E39AE0E916F104C8
:1011C00048F00F5F1F4F819331E0E31AF1080032BE
:1011D000110599F7B301852D942D0E94FD116BA384
:1011E0007CA38DA39EA3ABA1BCA1A9A3BAA3F70125
:1011F000EE0FFF1FEE0FFF1FEC50F945808191812C
:10120000A281B3818CAB9DABAEABBFABABA1BCA19C
:10121000BD01BB0F880B982F0E9435129B01AC01BA
:10122000B301852D942D0E9419112CA93DA94EA919
:101230005FA90E94EA126FA778AB89AB9AAB0E94B4
:1012400004124B015C010E9433129B01AC016FA59B
:1012500078A989A99AA90E9419116FA778AB89ABBF
:101260009AAB20E030E040E05FE30E94E512181600
:10127000CCF5BFEF8B1A9B0AAB0ABB0AB401C501C0
:101280000E9433129B01AC016CA97DA98EA99FA974
:101290000E948611181644F0EBA1FCA13196E9A337
:1012A000FAA3A12CB12C4501E114F104A1F19E0196
:1012B0002F5F3F4F200F311F2BA33CA38AE0482E06
:1012C000512C612C712C0032110509F070C0C7013E
:1012D000800F911F20E389C01BAA68CF26E0E22E71
:1012E000F12C66CF20E030E040E05FE36FA578A905
:1012F00089A99AA90E94861187FDD6CF81149104ED
:10130000A104B10411F080FECFCFFFEF8F1A9F0A26
:10131000AF0ABF0AC9CFA9A1BAA1BD01BB0F880BF3
:10132000982F0E9435129B01AC01B301852D942D9D
:101330000E94191120E030E040E05FE30E94861136
:1013400087FD07C089A19AA10196FC01EE7FE9A360
:10135000FAA3FE013196E00FF11F2AE030E00032DF
:10136000110579F089A19AA1B9010E940F100F5FB0
:101370001F4F805D819369A37AA389A19AA1892BCC
:1013800071F7822D8370813009F052C0C114D104ED
:1013900009F44EC09BA9911105C0822D8C7090E07C
:1013A000892B19F0A1E0CA1AD10880E335C0F1E019
:1013B000EF1AF108B401C5019201A3010E942310A4
:1013C0000F5F1F4F605DABA1BCA16D93ABA3BCA32E
:1013D000BAE08B169104A104B10408F478CF490156
:1013E0005A0171CF20830F5F1F4F0032110509F49E
:1013F000B0CFFE013196E00FF11F0817190791F7E2
:101400008EE280830F5F1F4FA4CFFE013196E00F65
:10141000F11F80830F5F1F4F0C151D0548F400322C
:10142000110599F7510178018E010F5F1F4F36CEDC
:1014300000321105B9F3BBA9B11549F0FE0131968F
:10144000E00FF11F8DE280830F5F1F4FEBCF22FE75
:1014500006C0FE013196E00FF11F8BE2F4CF23FEB0
:10146000E1CFFE013196E00FF11F80E2ECCF811158
:101470000C944F030895FB01811531F06281738153
:101480000190F081E02D099408952F923F924F92A0
:101490005F926F927F928F929F92AF92BF92CF9204
:1014A000DF92EF92FF920F931F93CF93DF93CDB70D
:1014B000DEB7C254D109CDBFDEBF8FA798AB6BABEF
:1014C0007CAB49AB5AAB2BA73CA7672B21F423E994
:1014D00033E02FA738AB412C512CFBC12BA53CA5E9
:1014E0002F5F3F4F2BA73CA7853261F029A93AA96E
:1014F000A2016BA97CA9EFA5F8A90995FFEF4F1AE6
:101500005F0AE7C1212C312C5DC08D3209F477C010
:10151000803309F453C090ED980F9A3008F05DC005
:10152000EBA5FCA519A61AA6EBA7FCA7208180EDC8
:10153000820F8A3008F46FC0EBA5FCA580818E3243
:1015400009F096C0689432F8818190ED980F9A3036
:1015500008F087C031961DA61EA63AE0EBA7FCA7AF
:10156000208180ED820F8A3008F46AC0EBA5FCA5CB
:1015700081918C3609F494C00CF08EC0883609F441
:10158000A0C08A3609F4A9C0ABA5BCA58D91ABA7B4
:10159000BCA789370CF0AACF88350CF0A1C08534E0
:1015A00051F00CF4A3CF863409F405C3873409F055
:1015B0009DCF689433F8689425F818C3689420F890
:1015C000EBA7FCA7EBA5FCA581918B32D9F00CF021
:1015D0009CCF8032D1F08332D9F08A3271F5D801B4
:1015E0008D919D918D0197FF05C0689421F891958B
:1015F0008195910989A79AA7EBA7FCA79DCF68942D
:1016000021F8DECF689422F8DBCF689423F8D8CF96
:10161000689424F8D5CF31966AE049A55AA5649F0D
:10162000C001659F900D1124C097DC01A20FB11D70
:1016300027FDBA95A9A7BAA777CF19A61AA67CCF76
:1016400031964DA55EA5349FC001359F900D1124A4
:10165000C097BC01620F711D27FD7A956DA77EA70B
:101660007DCF8A3241F08BA59CA501968BA79CA7C4
:101670001DA61EA67BCFD801ED91FD918D01EDA792
:10168000FEA7F7FF02C01DA61EA62BA53CA52E5F38
:101690003F4F2BA73CA76ACF8437F9F08A3772CF28
:1016A000ABA5BCA511968C918C3629F0689430F8C6
:1016B000EBA7FCA769CFB3E03B2AEBA5FCA53296CC
:1016C000F7CFABA5BCA511968C91883619F068941C
:1016D00027F8EECFB0EC2B2AF0CF689431F8E8CFA2
:1016E000E8EAE80FE13208F001CFFE2FFF0FFF0B11
:1016F000E75AFC4E0C944510883709F41AC1883516
:1017000009F415C18F3609F4A0C3823609F49FC3CA
:10171000E89424F8893609F010C1EAE0EDAB1EAA7E
:1017200032FE02C0E89420F820E0332D3270893672
:1017300019F0843609F073C1232B09F412C1C801D2
:10174000089621968EAF9FAF2197D801FC901196F5
:10175000BC91F801E280D380648075808680978098
:101760002F2D3B2F4E2D5D2DB301C4010FE30E94A1
:10177000D51023962FAF23972F2D3B2F4E2D5D2D68
:10178000B301C401A0E00E94F91011F4E89424F818
:1017900032FE0AC02F2D3B2F4E2D5D2DB301C4010B
:1017A0000E94F91009F4DAC04DA95EA99A0129A393
:1017B0003AA31BA21CA21DA21EA21FA218A6FE2DA8
:1017C000ED2D2F2D3B2F4E2D5D2DB301C4010E9419
:1017D000F91044F40E94AA10F22EB32FF42FE52F33
:1017E0003B014C01FFAAB8AFF9AFEAAF6BAE7CAEDC
:1017F0008DAE9EAE81E425FE81E64E015FEF851A37
:10180000950A612C712C8A5022968FAF2297A9A03D
:10181000BAA0CBA0DCA0EDA0FEA00FA118A52FA917
:1018200038AD49AD5AAD6BAD7CAD8DAD9EAD0E946E
:101830004B102A300CF08DC0205D7FEF671A770ABD
:10184000D4012C932FA938AD49AD5AAD6BAD7CAD09
:101850008DAD9EADA9A0BAA0CBA0DCA0EDA0FEA04E
:101860000FA118A50E94F01088F0BFEF8B1A9B0AF9
:101870000E944D102FAB38AF49AF5AAF6BAF7CAF62
:101880008DAF9EAFE0E26E16710409F63F922F9283
:10189000FAA5FF9329A52F938DA49EA4ADA8BEA859
:1018A0002396CFAC239773018E010F5F1F4F29A999
:1018B0003AA9A2016BA97CA98FA598A90E9421042D
:1018C0002C010F900F900F900F9021960EAD1FAD31
:1018D0002197ABA5BCA58C91811100CEE9A9FAA9ED
:1018E000AF01415051094E165F0608F4A20129A923
:1018F0003AA96BA97CA980E0EFA5F8A90995C201D6
:10190000CE5BDF4FCDBFDEBFDF91CF911F910F9137
:10191000FF90EF90DF90CF90BF90AF909F908F900F
:101920007F906F905F904F903F902F9008956894B4
:1019300025F820E12DAB1EAA05C0843631F04AE01F
:101940004DAB1EAA53EF2522EBCE6AE06DAB1EAA6B
:10195000E7CE22966FAD2297260F6FCF612C712CA8
:1019600095CF4DA95EA94A01A12CB12C380130FEBA
:1019700031C0D8014D915D916D917D913D0177FB15
:10198000882780F97A018B0117FF08C01095009510
:10199000F094E094E11CF11C011D111D3F922F9267
:1019A000EAA5EF93F9A5FF932EA52F933DA53F93AD
:1019B000C82E29A93AA9A2016BA97CA98FA598A92B
:1019C0000E94F1042C010F900F900F900F900F9038
:1019D0000F9008C142E0640E711C26FE1CC0D801A5
:1019E000EC90FE2CFF0CFF08F7FACC24C0F8F7FEB1
:1019F00003C0F194E194F1080F2D000F000B102F9C
:101A00003F922F92FAA5FF9329A52F933EA53F93CE
:101A10004DA54F93CECFF801E080F180E5CF232B89
:101A200009F4A9C0B801685F7F4F21966EAF7FAF00
:101A30002197D801BC91BFABF801F181F8AFD80173
:101A40001296BC91B9AFF801F381FAAFD8011496A0
:101A5000BC91BBAFF801F581FCAFD8011696BC91E3
:101A6000BDAFF801F781FEAF2FA938AD49AD5AAD32
:101A70006BAD7CAD8B2F9F2FA0E00E94F91011F46D
:101A8000E89424F832FE0EC02FA938AD49AD5AAD06
:101A90006BAD7CAD8DAD9EAD612C712C0E94F910AB
:101AA00009F458C04DA95EA99A0140E050E0BA017E
:101AB00029A33AA31BA21CA21DA21EA21FA218A604
:101AC00081E425FE81E64E015FEF851A950A3B0110
:101AD0008A5022968FAF2297A9A0BAA0CBA0DCA0F3
:101AE000EDA0FEA00FA118A52FA938AD49AD5AADA4
:101AF0006BAD7CAD8DAD9EAD0E944B102A30B4F520
:101B0000205D7FEF671A770AD4012C932FA938AD97
:101B100049AD5AAD6BAD7CAD8DAD9EADA9A0BAA05F
:101B2000CBA0DCA0EDA0FEA00FA118A50E94F01094
:101B300088F0BFEF8B1A9B0A0E944D102FAB38AF75
:101B400049AF5AAF6BAF7CAF8DAF9EAFE0E26E1680
:101B5000710411F63F922F92FAA5FF9329A52F93B6
:101B60008DA49EA4ADA8BEA8C12C9DCE22966FAD1B
:101B70002297260FC6CF4DA95EA94A01A12CB12CF0
:101B8000D80130FE11C0ED90FD900D911D913D01E9
:101B90003F922F92BAA5BF93E9A5EF93FEA5FF93BD
:101BA0002DA52F93C12C05CFED90FD903D0126FC76
:101BB000F12C8501EDCF689425F8D801ED90FD90CA
:101BC0000D911D913D014101A9A4BAA4CDA4DEA4AB
:101BD00029A93AA9A2016BA97CA98FA598A90E945D
:101BE00019082C01830175CE8736A9F0F801E19020
:101BF000F190019111913F014101A9A4BAA4CDA492
:101C0000DEA429A93AA9A2016BA97CA98FA598A94C
:101C10000E948A05E6CF689433F8E8CF21FAAA2417
:101C2000A1F8B12C91E0E92EF12C21FC29C040E073
:101C300050E00BC0440D551D29A93AA96BA97CA9F8
:101C400080E2EFA5F8A90995A7017A01FFEFEF1A45
:101C5000FF0A29A53AA5E216F30660F381E090E0B9
:101C6000232B09F480E0E9A4FAA432E0E30EF11C8E
:101C7000E81AF90A49A55AA5440E551E481A590AE8
:101C800062015FEFC51AD50A480162E0860E911C19
:101C900029A93AA9A2016BA97CA9D8018C91EFA529
:101CA000F8A90995AB2801F1870156010EC00F5F15
:101CB0001F4F29A93AA9A5016BA97CA980E2EFA52C
:101CC000F8A90995FFEFAF1ABF0A29A53AA502178F
:101CD000130768F3C9018E199F092E153F0510F4EB
:101CE00080E090E0C80ED91E84012601F2CDD80113
:101CF000ED90FD908D01EDA5FEA5CF01EF2B11F428
:101D00008FEF9FEF6701F7014081411511F00097B8
:101D1000C9F49F012E193F097901612C32FA772409
:101D200072F832FE06C04DA55EA54217530708F4AF
:101D30007A01622D627069A31AA221FC3AC0570190
:101D4000420112C031960197DFCF29A93AA9A40117
:101D50006BA97CA980E2EFA5F8A90995FFEFAF1A5E
:101D6000BF0A2FEF821A920A49A55AA5A416B506F2
:101D700060F329A53AA5C9018E199F092E153F05C3
:101D800010F480E090E03FEFE31AF30AE80EF91E4A
:101D9000480E591E0EC05FEFC51AD50A29A93AA9E7
:101DA000A2016BA97CA9EFA5F8A90995FFEF4F1A2D
:101DB0005F0AD6018C91811559F06114710459F3B1
:101DC000EDA5FEA5309721F03197EDA7FEA7E3CF53
:101DD00029A13AA1232B09F47CCD670152010FC040
:101DE0003FEFC31AD30A29A93AA9A5016BA97CA977
:101DF00080E2EFA5F8A90995FFEFAF1ABF0A29A560
:101E00003AA5C216D30660F3C9018E199F092E1593
:101E10003F0510F480E090E0480E591E5ACDD801DD
:101E2000ED90FD903D0100E010E0B1E22B2A3F92E1
:101E30002F921F9284E08F93EEA5EF93FDA5FF9361
:101E4000580180E1882E912CADCE48E079CD62E03A
:101E50006DAB1EAA77CD0F931F93CF93DF930F9295
:101E6000CDB7DEB7FE013896219131918F014FEF4A
:101E70005FEFBE016F5F7F4F87E39AE00E94450AE4
:101E80000F90DF91CF911F910F9108950F931F93A2
:101E9000CF93DF93CDB7DEB78E01055F1F4F298546
:101EA0003A854FEF5FEF6F8178858BE893E00E9472
:101EB000450ADF91CF911F910F9108950F931F93C2
:101EC000CF93DF93CDB7DEB78E01035F1F4F2B8516
:101ED0003C8549855A856F8178858BE893E00E941F
:101EE000450ADF91CF911F910F9108950F931F9392
:101EF000CF93DF930F92CDB7DEB78B019C014FEFED
:101F00005FEFBE016F5F7F4F87E39AE00E94450A53
:101F10000F90DF91CF911F910F9108950F931F9311
:101F200089019A01AB01BC018BE893E00E94450A4C
:101F30001F910F9108950F931F93CF93DF9300D0BC
:101F400000D0CDB7DEB78B859C8589839A838D853C
:101F50009E858B839C838E010F5E1F4F2F85388952
:101F60004FEF5FEFBE016F5F7F4F8BE39AE00E9400
:101F7000450A2496CDBFDEBFDF91CF911F910F910F
:101F800008950E947A010E9442020E94B5020E94B6
:101F900082030E9452000E94C9028FB787608FBFE0
:101FA00088ED84BF109261008DE092E0809300780C
:101FB0009093017881E090E0809302789093037889
:101FC000CAE2D7EA8091087890910978049721F4C1
:101FD00082E080934604FDCFE0910078F091017893
:101FE000099580910278909103789F938F93DF9366
:101FF000CF930E942B0F0F900F900F900F90E2CF76
:10200000A29FB001B39FC001A39F700D811D112439
:10201000911DB29F700D811D1124911D089597FB94
:10202000072E16F4009407D077FD09D00E94051101
:1020300007FC05D03EF4909581959F4F08957095CB
:1020400061957F4F0895A1E21A2EAA1BBB1BFD01CB
:102050000DC0AA1FBB1FEE1FFF1FA217B307E40787
:10206000F50720F0A21BB30BE40BF50B661F771FDF
:10207000881F991F1A9469F76095709580959095BF
:102080009B01AC01BD01CF010895EE0FFF1F05902C
:10209000F491E02D0994689401C0E8948F929F9286
:1020A000CF93DF930E945910DF91CF919F908F9033
:1020B000089588249924F401E401B0E49F93AA27A9
:1020C0009A158B049C04ED05FE05CF05D007A107EA
:1020D00098F4AD2FDC2FCF2FFE2FE92D982C892ED1
:1020E000982F872F762F652F542F432F322F22279B
:1020F000B85031F7BF9127C01B2EBF91BB27220FCD
:10210000331F441F551F661F771F881F991F881C88
:10211000991CEE1FFF1FCC1FDD1FAA1FBB1F8A14B7
:102120009B04EC05FD05CE05DF05A007B10748F0CF
:102130008A189B08EC09FD09CE09DF09A00BB10B39
:1021400021601A94E1F62EF49401AF01BE01CD0195
:10215000000C089560957095809590953095409508
:10216000509521953F4F4F4F5F4F6F4F7F4F8F4F90
:102170009F4F0895002E083090F0982F872F762FCC
:10218000652F542F432F322F22270850F4CF220FD0
:10219000331F441F551F661F771F881F991F0A95FD
:1021A000B2F7002D089597FD1094002E083098F096
:1021B0000850232F342F452F562F672F782F892F24
:1021C000912DF4CF159497958795779567955795A9
:1021D0004795379527950A95AAF71124002D08955C
:1021E0002A153B054C055D056E057F0580079107A7
:1021F00008950024A7FD00942A17300540055005D6
:1022000060057005800590050895AA1BBB1B51E170
:1022100007C0AA1FBB1FA617B70710F0A61BB70B56
:10222000881F991F5A95A9F780959095BC01CD01FB
:1022300008955058BB27AA270E9431110C94AB1265
:102240000E949D1238F00E94A41220F039F49F3FA2
:1022500019F426F40C949A120EF4E095E7FB0C9412
:102260009412E92F0E94BC1258F3BA176207730741
:102270008407950720F079F4A6F50C94DE120EF48D
:10228000E0950B2EBA2FA02D0B01B90190010C0186
:10229000CA01A0011124FF27591B99F0593F50F49E
:1022A000503E68F11A16F040A22F232F342F4427F6
:1022B000585FF3CF469537952795A795F0405395EE
:1022C000C9F77EF41F16BA0B620B730B840BBAF0BE
:1022D0009150A1F0FF0FBB1F661F771F881FC2F729
:1022E0000EC0BA0F621F731F841F48F4879577953D
:1022F0006795B795F7959E3F08F0B0CF9395880FF7
:1023000008F09927EE0F9795879508950E9470120F
:1023100008F481E008950E949F110C94AB120E9472
:10232000A41258F00E949D1240F029F45F3F29F05A
:102330000C94941251110C94DF120C949A120E9476
:10234000BC1268F39923B1F3552391F3951B550BF8
:10235000BB27AA2762177307840738F09F5F5F4F78
:10236000220F331F441FAA1FA9F335D00E2E3AF0B7
:10237000E0E832D091505040E695001CCAF72BD0CF
:10238000FE2F29D0660F771F881FBB1F2617370720
:102390004807AB07B0E809F0BB0B802DBF01FF2752
:1023A00093585F4F3AF09E3F510578F00C94941289
:1023B0000C94DF125F3FE4F3983ED4F38695779553
:1023C0006795B795F7959F5FC9F7880F911D96950B
:1023D000879597F90895E1E0660F771F881FBB1F67
:1023E000621773078407BA0720F0621B730B840B14
:1023F000BA0BEE1F88F7E09508950E9404126894C6
:10240000B1110C94DF1208950E94C41288F09F57F6
:1024100098F0B92F9927B751B0F0E1F0660F771F08
:10242000881F991F1AF0BA95C9F714C0B13091F0FE
:102430000E94DE12B1E008950C94DE12672F782F0F
:102440008827B85F39F0B93FCCF3869577956795C3
:10245000B395D9F73EF490958095709561957F4F2F
:102460008F4F9F4F0895E89409C097FB3EF49095D5
:102470008095709561957F4F8F4F9F4F9923A9F05D
:10248000F92F96E9BB279395F695879577956795EC
:10249000B795F111F8CFFAF4BB0F11F460FF1BC030
:1024A0006F5F7F4F8F4F9F4F16C0882311F096E9C3
:1024B00011C0772321F09EE8872F762F05C0662371
:1024C00071F096E8862F70E060E02AF09A95660F2A
:1024D000771F881FDAF7880F9695879597F90895E3
:1024E000990F0008550FAA0BE0E8FEEF1616170625
:1024F000E807F907C0F012161306E407F50798F08D
:10250000621B730B840B950B39F40A2661F0232BA5
:10251000242B252B21F408950A2609F4A140A69521
:102520008FEF811D811D089597F99F6780E870E006
:1025300060E008959FEF80EC089500240A94161639
:10254000170618060906089500240A9412161306A1
:10255000140605060895092E0394000C11F488232F
:1025600052F0BB0F40F4BF2B11F460FF04C06F5F4B
:102570007F4F8F4F9F4F089557FD9058440F551F21
:1025800059F05F3F71F04795880F97FB991F61F0F5
:102590009F3F79F087950895121613061406551F6C
:1025A000F2CF4695F1DF08C0161617061806991FD8
:1025B000F1CF86957105610508940895E894BB27CD
:1025C00066277727CB0197F908950E94701208F4C7
:1025D0008FEF08950E94FD120C94AB120E949D1281
:1025E00038F00E94A41220F0952311F00C9494125C
:1025F0000C949A1211240C94DF120E94BC1270F3F6
:10260000959FC1F3950F50E0551F629FF001729F97
:10261000BB27F00DB11D639FAA27F00DB11DAA1FA6
:10262000649F6627B00DA11D661F829F2227B00DF3
:10263000A11D621F739FB00DA11D621F839FA00D7E
:10264000611D221F749F3327A00D611D231F849FCE
:10265000600D211D822F762F6A2F11249F57504025
:102660009AF0F1F088234AF0EE0FFF1FBB1F661FA0
:10267000771F881F91505040A9F79E3F510580F069
:102680000C9494120C94DF125F3FE4F3983ED4F361
:10269000869577956795B795F795E7959F5FC1F70D
:1026A000FE2B880F911D9695879597F90895F894BC
:1026B000FFCF7C0B760A760A760A760A760A760AC5
:1026C000760A760A760A7C0B0E0E7C0BF40DDD0D75
:1026D000F40D760A7C0B760A760A760A760A760A72
:1026E0007C0B0F0F760A760A770E760A7C0B760A39
:0426F000760A7C0BDF
:1026F4000000803F000020410000C84200007A44EE
:1027040000401C460050C347002474498096184B6F
:1027140020BCBE4C286B6E4E414320696E746572BA
:10272400727570740A0073746174653A2025640AC2
:1027340000666E692B00666E69006E616E00666EDF
:03274400692D00FC
:00000001FF
