:100000000C943E000C9448000C9448000C9448005A
:100010000C9448000C9448000C9448000C94480040
:100020000C9448000C9448000C9448000C94480030
:100030000C9448000C9448000C9448000C94480020
:100040000C9448000C9448000C9448000C94480010
:100050000C9448000C9448000C9448000C946200E6
:100060000C9448000C9448000C9448000C944800F0
:100070000C9448000C9448000C94480011241FBEB6
:10008000CFEFCDBFDFE7DEBF0E949A000C94AA003D
:100090000C940000E0E6F4E085E28283A2E4B4E0A0
:1000A00088E08C9384E0808B828B858BA3E58C9396
:1000B000E0E8F6E085E0808381E08283868380E06B
:1000C00090E0089518951092E70580E090E008957B
:1000D000E0E0F4E0178A80E7808FF2E081E4808B33
:1000E00081E080ABFBE094E09183848380E090E04A
:1000F00008958DE380930104E0E0FAE081E08083DD
:1001000085E0818380EA91E086A397A310A611A6DB
:1001100012A613A614A615A680E090E00895E0E8C4
:10012000FCE083E0808389E1828B8FE1878B80E034
:1001300090E008950E9463000E9468000E94790088
:100140000E948F000E944A008FB787608FBF80E0B7
:0801500090E00895F894FFCF40
:00000001FF
